:100000000C9464000C948C000C948C000C948C0068
:100010000C948C000C948C000C948C000C948C0030
:100020000C948C000C948C000C948C000C948C0020
:100030000C948C000C948C000C948C000C948C0010
:100040000C946F070C948C000C944A090C9498093A
:100050000C948C000C948C000C948C000C948C00F0
:100060000C94330F0C948C00000000002400270037
:100070002A0000000000250028002B0000000000DE
:1000800023002600290004040404040404040202DA
:100090000202020203030303030301020408102007
:1000A0004080010204081020010204081020000012
:1000B0000007000201000003040600000000000029
:1000C00000006906040BCF0D11241FBECFEFD8E04E
:1000D000DEBFCDBF11E0A0E0B1E0EAECF6E202C085
:1000E00005900D92A637B107D9F713E0A6E7B1E066
:1000F00001C01D92AC3BB107E1F710E0C8ECD0E0C5
:1001000004C02297FE010E945F13C23CD107C9F7C9
:100110000E9460070C948E000C940000F8940C94DC
:1001200063130895EF92FF920F931F93162F042FDE
:1001300082E4E82E83E0F82EC70167E770E00E94B2
:10014000950DC701612F0E94170EC701602F0E94F5
:10015000170EC7010E945A0E1F910F91FF90EF904A
:100160000895CF92DF92EF92FF920F931F93162F75
:1001700092E4E92E93E0F92EC70167E770E00E9450
:10018000950DC701612F0E94170EC7010E945A0EDC
:10019000C70167E770E00E94950DC70167E770E04F
:1001A00042E050E00E946B0EC7010E94A80D182F7C
:1001B00000E0C7010E94A80D6C01C7010E945A0E01
:1001C0000C291D29C8011F910F91FF90EF90DF901E
:1001D000CF9008950F931F938C0164EF4EE20E941D
:1001E000920080E29EE40197F1F7C80166EF0E9459
:1001F000B1001F910F9108958F929F92AF92BF927D
:10020000CF92DF92EF92FF920F931F934C010E94C7
:10021000EA00A0E0B0E0F4012589368940E050E032
:10022000821B930BA40BB50B2389348940E050E06B
:10023000BC01CD010E9401130E94E61120E030E0D4
:1002400040E058E30E949A120E94B3117B018C0196
:10025000F40165857685882777FD8095982F0E9423
:10026000E61120E030E040E055E40E949A125B0184
:100270006C01F40167857089882777FD8095982F38
:100280006E0D7F1D801F911F0E94E6119B01AC0126
:10029000C601B5010E944B110E94B31128E030E065
:1002A00040E050E0E20EF31E041F151F6E0D7F1D8F
:1002B000801F911F0E94E61120E030E040E85DE3DE
:1002C0000E949A1220E030E040E251E40E944B117B
:1002D0001F910F91FF90EF90DF90CF90BF90AF9064
:1002E0009F908F900895EF92FF921F93162F22E414
:1002F000E22E23E0F22EC70167E770E00E94950D21
:10030000C701612F0E94170EC7010E945A0EC70134
:1003100067E770E00E94950DC70167E770E041E074
:1003200050E00E946B0EC7010E94A80D182FC70154
:100330000E945A0E812F1F91FF90EF900895EF9227
:10034000FF920F931F93CF93DF93EC014881429567
:10035000440F440F407C4C5C64EF0E949200888103
:10036000882319F480E29EE409C0813019F480E00A
:100370009DE704C0823029F480EC9AED0197F1F7F3
:1003800009C084E091E020E931E0F9013197F1F70B
:100390000197D9F7CE0166EF0E94B1007C0100E021
:1003A00010E0102F0F2DFE2CEE24CE0168EF0E94DE
:1003B0007301282F30E040E050E02E293F29402BE8
:1003C000512B688188E090E0861B910904C0569506
:1003D0004795379527958A95D2F7B901CA01DF91DC
:1003E000CF911F910F91FF90EF9008953F924F9200
:1003F0005F926F927F928F929F92AF92BF92CF92B5
:10040000DF92EF92FF920F931F93DF93CF93CDB7BD
:10041000DEB728970FB6F894DEBF0FBECDBF2C0114
:100420000E94EA007C01C2010E949F016D837E83CD
:100430008F83988700E010E0D20155968D919C91B2
:100440005697A0E0B0E0E81AF90A0A0B1B0BF2017C
:100450002389348940E050E0C801B7010E940113AC
:100460000E94E61120E030E040E058E30E949A123A
:100470000E94B3117B018C01D2011D966D917C917C
:100480001E97882777FD8095982F0E94E61120E01F
:1004900030E040E055E40E949A125B016C01F201E9
:1004A00067857089882777FD8095982F6E0D7F1D51
:1004B000801F911F0E94E6119B01AC01C601B5018E
:1004C0000E944B110E94B3115B016C0180E690EF1A
:1004D000AFEFBFEFE80EF91E0A1F1B1FAE0CBF1CCB
:1004E000C01ED11EC601B501A60195010E940113CF
:1004F0003B014C01ACE09594879477946794AA955E
:10050000D1F7D2013C9015962D913C911697442736
:1005100037FD4095542FC601B5010E9401137B01A0
:100520008C01FDE015950795F794E794FA95D1F7BE
:1005300082E090E0A0E0B0E0E80EF91E0A1F1B1F69
:10054000D20117962D913C911897442737FD40957D
:10055000542FC401B3010E940113BC01992777FDF8
:100560009095892FE60EF71E081F191F62E015955A
:100570000795F794E7946A95D1F780E090E8A0E0BA
:10058000B0E0E80EF91E0A1F1B1FD20151962D91F3
:100590003C91529740E050E0C801B7010E9401131E
:1005A000DC01CB015FE0B695A795979587955A95A5
:1005B000D1F789839A83AB83BC83D20113962D91A3
:1005C0003C911497442737FD4095542FC601B5013F
:1005D0000E9401137B018C014BE015950795F79460
:1005E000E7944A95D1F7F20181819281AA2797FD7C
:1005F000A095BA2F32E0880F991FAA1FBB1F3A950A
:10060000D1F7E80EF91E0A1F1B1F218532854427EA
:1006100037FD4095542FC401B3010E9401132BE014
:1006200095958795779567952A95D1F7E60EF71EEC
:10063000081F191F032C04C0EE0CFF1C001F111F04
:100640000A94D2F782E090E0A0E0B0E0E80EF91E54
:100650000A1F1B1FC801B70124E030E040E050E052
:100660000E9442138D819E81AF81B885821B930BBE
:10067000A40BB50B8D839E83AF83B88720E533EC45
:1006800040E050E004C056954795379527953A9439
:10069000D2F7BC01CD010E94011397FD0FC0660F78
:1006A000771F881F991F29813A814B815C810E94A5
:1006B0002013C901DA015C016D010CC029813A8166
:1006C0004B815C810E94201359016A01AA0CBB1C5A
:1006D000CC1CDD1C5527D7FC5A954D2D3C2D2B2DC0
:1006E000CA01B9010E9401132EED3BE040E050E049
:1006F0000E9401137B018C01C601B50123E433EE96
:100700004FEF5FEF0E9401139C01552737FD509575
:10071000452F2153314F4F4F5F4F78011127F7FC81
:100720001095012F2E0D3F1D401F511F64E0559560
:100730004795379527956A95D1F72A0D3B1D4C1D96
:100740005D1DB901CA0128960FB6F894DEBF0FBE31
:10075000CDBFCF91DF911F910F91FF90EF90DF9070
:10076000CF90BF90AF909F908F907F906F905F9051
:100770004F903F900895CF93DF93EC01643008F0E1
:1007800063E0688382E493E00E946F0ECE0160ED27
:100790000E947301853511F080E042C0CE016AEA03
:1007A0000E94B1009A838983CE016CEA0E94B10055
:1007B0009C838B83CE016EEA0E94B1009E838D8361
:1007C000CE0160EB0E94B1009A8B898BCE0162EB67
:1007D0000E94B1009C8B8B8BCE0164EB0E94B10018
:1007E0009E8B8D8BCE0166EB0E94B10098878F8324
:1007F000CE0168EB0E94B1009A878987CE016AEB2F
:100800000E94B1009C878B87CE016CEB0E94B100E7
:100810009E878D87CE016EEB0E94B100988B8F87EB
:10082000DF91CF910895FC0166834783208781E0A3
:10083000858708950F931F938C01FC01868160E0EA
:100840000E946308F801868161E00E94A208F80115
:1008500011861286138614861F910F910895CF92E8
:10086000DF92EF92FF920F931F93CF93DF93EC01F0
:100870008E8161E00E94A2086AEF70E080E090E063
:100880000E94C5070E94B7079B01AC0189859A8524
:10089000AB85BC85281739074A075B0720F4198602
:1008A0001A861B861C868D85882371F489859A8516
:1008B000AB85BC85281B390B4A0B5B0B205D374091
:1008C0004040504008F477C01D860E94B7076987F2
:1008D0007A878B879C871C821B821A8219821882D6
:1008E0008E8161E00E9463088E8160E00E94A20810
:1008F00064E170E080E090E00E94C507F8948E818A
:1009000061E00E94A20888E290E00E941E088E81A9
:1009100060E00E94630881E0EE2400E010E00AC07D
:10092000F39481E090E00E941E088FEFF81629F4FE
:100930000AC0822FFF24C82EDD248E810E94F60873
:100940008C159D0569F38E810E94F608282F8FEF84
:10095000F816C9F0043090F000FD10C08E2D869579
:1009600086958695FE01E80FF11D9081990F908381
:1009700088858F1510F491609083E3940F5F1F4F6B
:1009800005351105B1F6789487E28E1510F030E048
:1009900013C030E04C8150E02981888190E0820FC3
:1009A000911D2A81820F911D2B81820F911D9070C4
:1009B0004817590709F431E0832FDF91CF911F9138
:1009C0000F91FF90EF90DF90CF900895EF92FF92FC
:1009D0000F931F93CF93DF93EC010E942F04882382
:1009E000A9F18F818B3031F08B3080F185518230CD
:1009F00068F507C0688170E080E090E00E94E41133
:100A000022C0688170E080E090E00E94E41120E064
:100A100030E040E853E40E949A127B018C01698126
:100A200070E0882777FD8095982F0E94E6119B0142
:100A3000AC01C801B7010E94E31020E030E040E2C1
:100A400051E40E944B11E62F692F0AC08AED92E013
:100A500060E071E00E949B0CE0E070E080EC6FE7EA
:100A60002E2F372F482F562FB901CA01DF91CF9172
:100A70001F910F91FF90EF900895FC01108208954F
:100A8000EF92FF920F931F93CF93DF93EC010E949D
:100A9000B7077B018C018B859C85AD85BE85A80140
:100AA0009701281B390B4A0B5B0B89819A81AB811B
:100AB000BC81281739074A075B07E0F0888181303D
:100AC00019F0823071F404C0E985FA85099509C0EE
:100AD00060E08885882309F461E068878F810E943F
:100AE000A208EB86FC860D871E878F859889019664
:100AF000988B8F872D813E8137FD06C08F85988921
:100B0000821793070CF01882DF91CF911F910F91FC
:100B1000FF90EF900895EF92FF920F931F93CF9362
:100B2000DF937C018C01C0E0D0E0F8018081882354
:100B300061F0CE0134E0880F991F3A95E1F78C0FF0
:100B40009D1F8E0D9F1D0E94400521960F5E1F4F19
:100B5000CA30D10551F7DF91CF911F910F91FF90CE
:100B6000EF900895DF92EF92FF920F931F93DC01B5
:100B7000762F602FFC01DD248081882341F0D394FF
:100B800071968AE0D816C1F7DD24DA9428C08D2D3D
:100B9000992787FD90958C01E4E0000F111FEA95DD
:100BA000E1F7080F191F0A0F1B1F82E0F80180836D
:100BB000778321833283438354836087872F0E9406
:100BC000A208EE0CFF1CF801F682E5820E94B7072E
:100BD000F8016387748785879687108A17868D2D1D
:100BE0001F910F91FF90EF90DF900895EF92FF9289
:100BF0000F93EE24EA94FE2C0E94B2050F91FF9011
:100C0000EF900895FF920F931F93CF93DF93DC0132
:100C1000E9019801FC01FF248081882341F0F394CD
:100C200071968AE0F816C1F7FF24FA9422C08F2D3E
:100C3000992787FD90958C01E4E0000F111FEA953C
:100C4000E1F7080F191F0A0F1B1F81E0F8018083CD
:100C5000418352836383748336832583D287C1871C
:100C60000E94B707F8016387748785879687108A83
:100C700017868F2DDF91CF911F910F91FF900895CF
:100C80000F931F930FEF1FEF0E9402061F910F910A
:100C900008950F931F93CF93DF93EC0100E010E0D2
:100CA000CE01800F911F0E943D050F5E1F4F0A3A33
:100CB0001105B1F7DF91CF911F910F91089508951C
:100CC000109245021092460210924702109248027A
:100CD000089586E791E00E94490680E292E00E9432
:100CE000910087E392E069E046E126E00E94130468
:100CF00008950F931F930AED12E0C8016AE071E0B6
:100D00000E949B0C87E392E00E94E604AB01BC01C9
:100D1000C80122E030E00E94820D1F910F910895DA
:100D2000EF92FF920F931F930AED12E0C80164E166
:100D300071E00E949B0C80E2E82E82E0F82EC70151
:100D40000E94F601AB01BC01C8012AE030E00E941C
:100D5000870CC8016DE171E00E949B0CC7010E94E5
:100D6000FC00AB01BC01C80122E030E00E94820D12
:100D7000C8016AE271E00E949B0C409145025091CB
:100D800046026091470270914802C8012AE030E0B3
:100D90000E94330C1F910F91FF90EF90089586E70A
:100DA00091E00E948B050895EF92FF920F931F939D
:100DB0000AED12E0C80140E052EC61E070E00E94F0
:100DC000D309E091DA02F091DB020280F381E02D99
:100DD000C80165E371E04AE050E0099580914E0159
:100DE00061E00E94630880914F0161E00E94630806
:100DF0008091500161E00E9463088091510160E0A0
:100E00000E9463088091520160E00E946308809113
:100E1000530160E00E9463088091540160E00E94E9
:100E200063088091550160E00E94630880E292E0CF
:100E300063E00E94BB0387E392E00E941A0496E7F6
:100E4000E92E91E0F92EC70144E650E060E070E041
:100E50002FE536E00E944006C70148EE53E060E00F
:100E600070E020E936E00E944006C70148E853E1FF
:100E700060E070E029E736E00E944006C70140E6E6
:100E80005AEE60E070E020E636E00E944006C701BE
:100E900060914E0124EF31E040E050E001E00E941B
:100EA000F605C70160914F0124EF31E040E050E0CA
:100EB00000E00E94F6051F910F91FF90EF900895BA
:100EC000CF93DF930E9428080E94D406C5E8D9E09A
:100ED0000E94CF062097E1F30E948509F9CF1F9267
:100EE0000F920FB60F9211242F933F938F939F93DE
:100EF000AF93BF9380914D0290914E02A0914F020B
:100F0000B0915002309151020196A11DB11D232FC5
:100F10002D5F2D3720F02D570196A11DB11D209377
:100F2000510280934D0290934E02A0934F02B093D2
:100F300050028091490290914A02A0914B02B091D7
:100F40004C020196A11DB11D8093490290934A0263
:100F5000A0934B02B0934C02BF91AF919F918F91A0
:100F60003F912F910F900FBE0F901F9018958FB744
:100F7000F89420914D0230914E0240914F025091D1
:100F800050028FBFB901CA0108959B01AC017FB720
:100F9000F8948091490290914A02A0914B02B0913D
:100FA0004C0266B5A89B05C06F3F19F00196A11DC4
:100FB000B11D7FBFBA2FA92F982F8827860F911DAB
:100FC000A11DB11D62E0880F991FAA1FBB1F6A9562
:100FD000D1F7BC012DC0FFB7F894809149029091E0
:100FE0004A02A0914B02B0914C02E6B5A89B05C005
:100FF000EF3F19F00196A11DB11DFFBFBA2FA92F18
:10100000982F88278E0F911DA11DB11DE2E0880F3A
:10101000991FAA1FBB1FEA95D1F7861B970B885E05
:101020009340C8F2215030404040504068517C4FBE
:10103000211531054105510571F60895019739F0E3
:10104000880F991F880F991F02970197F1F708954C
:10105000789484B5826084BD84B5816084BD85B593
:10106000826085BD85B5816085BDEEE6F0E080815A
:1010700081608083E1E8F0E010828081826080837B
:10108000808181608083E0E8F0E0808181608083FE
:10109000E1EBF0E0808184608083E0EBF0E0808130
:1010A00081608083EAE7F0E08081846080838081D2
:1010B000826080838081816080838081806880837A
:1010C0001092C1000895CF93DF93482F50E0CA01DA
:1010D00086569F4FFC0134914A575F4FFA01849125
:1010E000882369F190E0880F991FFC01E859FF4FB0
:1010F000A591B491FC01EE58FF4FC591D4916623A0
:1011000051F42FB7F8948C91932F909589238C9359
:10111000888189230BC0623061F42FB7F8948C91D9
:10112000932F909589238C938881832B88832FBF5D
:1011300006C09FB7F8948C91832B8C939FBFDF914F
:10114000CF910895482F50E0CA0182559F4FFC016E
:101150002491CA0186569F4FFC0194914A575F4FD4
:10116000FA013491332309F440C0222351F1233092
:1011700071F0243028F42130A1F0223011F514C090
:101180002630B1F02730C1F02430D9F404C080916A
:1011900080008F7703C0809180008F7D80938000D6
:1011A00010C084B58F7702C084B58F7D84BD09C01F
:1011B0008091B0008F7703C08091B0008F7D8093C5
:1011C000B000E32FF0E0EE0FFF1FEE58FF4FA591A8
:1011D000B4912FB7F894662321F48C9190958923CC
:1011E00002C08C91892B8C932FBF0895682F70E0DB
:1011F000CB0182559F4FFC012491CB0186569F4F16
:10120000FC0144916A577F4FFB019491992319F493
:1012100020E030E03CC0222351F1233071F0243033
:1012200028F42130A1F0223011F514C02630B1F09D
:101230002730C1F02430D9F404C0809180008F772A
:1012400003C0809180008F7D8093800010C084B5A2
:101250008F7702C084B58F7D84BD09C08091B000B6
:101260008F7703C08091B0008F7D8093B000892F6D
:1012700090E0880F991F84589F4FFC01A591B4916D
:101280008C9120E030E0842311F021E030E0C901AE
:10129000089508951F920F920FB60F9211242F9365
:1012A0003F934F938F939F93EF93FF938091C00051
:1012B00082FD1DC04091C6002091920230919302A0
:1012C0002F5F3F4F2F733070809194029091950261
:1012D0002817390771F0E0919202F0919302EE5ACB
:1012E000FD4F4083309393022093920202C080917D
:1012F000C600FF91EF919F918F914F913F912F9158
:101300000F900FBE0F901F901895E091E602F0919C
:10131000E702E05CFF4F8191919120813181821B36
:10132000930B8F739070892B11F00E9449090895D7
:101330001F920F920FB60F9211242F933F938F930A
:101340009F93EF93FF932091D6023091D702809123
:10135000D8029091D9022817390731F48091C10041
:101360008F7D8093C10014C0E091D802F091D90222
:10137000EA56FD4F20818091D8029091D9020196C2
:101380008F7390709093D9028093D8022093C600F7
:10139000FF91EF919F918F913F912F910F900FBEF1
:1013A0000F901F901895AF92BF92DF92EF92FF922D
:1013B0000F931F93CF93DF93EC017A018B01DD2410
:1013C000403081EE580780E0680780E0780711F030
:1013D000DD24D39491E0A92EB12CEC89FD89DD2088
:1013E00069F0C50108A002C0880F991F0A94E2F7AE
:1013F000808360E079E08DE390E005C0108260E8D2
:1014000074E88EE190E0A80197010E94201321501A
:10141000304040405040569547953795279580E19C
:101420002030380720F0DD2011F0DD24D6CFE88908
:10143000F9893083EA89FB89208319A2EE89FF8923
:10144000408121E030E0C9010C8C02C0880F991F57
:101450000A94E2F7482B4083EE89FF894081C90155
:101460000D8C02C0880F991F0A94E2F7482B408325
:10147000EE89FF894081C9010E8C02C0880F991F37
:101480000A94E2F7482B4083EE89FF8980810F8C14
:1014900002C0220F331F0A94E2F7209528232083ED
:1014A000DF91CF911F910F91FF90EF90DF90BF9050
:1014B000AF900895DC011C96ED91FC911D97E05CC6
:1014C000FF4F2191319180819181281B390B2F731E
:1014D0003070C9010895DC011C96ED91FC911D97B7
:1014E000E05CFF4F20813181E054F040DF01AE5BD2
:1014F000BF4F8D919C9111972817390719F42FEF41
:101500003FEF07C08D919C91E80FF91F8081282F34
:1015100030E0C9010895DC011C96ED91FC911D9706
:10152000E05CFF4F20813181E054F040DF01AE5B91
:10153000BF4F8D919C9111972817390719F42FEF00
:101540003FEF10C08D919C911197E80FF91F2081FA
:101550008D919C91119701968F73907011969C9329
:101560008E9330E0C9010895DC0191968C9191979A
:10157000882339F05496ED91FC915597808186FF30
:10158000F9CF91961C920895CF93DF93EC01EE85ED
:10159000FF85E05CFF4F20813181E054F0402F5FF8
:1015A0003F4F2F733070DF01AE5BBF4F8D919C9129
:1015B000119728173907D1F3E05CFF4F80819181A3
:1015C000E054F040E80FF91F6083EE85FF85E05C92
:1015D000FF4F31832083EE89FF89208181E090E0F5
:1015E0000F8C02C0880F991F0A94E2F7282B2083E2
:1015F00081E089A3EC89FD8980818064808381E01A
:1016000090E0DF91CF9108951092DD021092DC02FC
:1016100088EE93E0A0E0B0E08093DE029093DF02DA
:10162000A093E002B093E1028AE591E09093DB029F
:101630008093DA0282E592E09093E7028093E602DB
:1016400086E992E09093E9028093E80285EC90E0CD
:101650009093EB028093EA0284EC90E09093ED0289
:101660008093EC0280EC90E09093EF028093EE0286
:1016700081EC90E09093F1028093F00282EC90E094
:101680009093F3028093F20286EC90E09093F5023F
:101690008093F40284E08093F60283E08093F70263
:1016A00087E08093F80285E08093F90281E08093DF
:1016B000FA020895CF92DF92EF92FF920F931F9359
:1016C000CF93DF937C016B018A01C0E0D0E00FC0B3
:1016D000D6016D916D01D701ED91FC910190F081E2
:1016E000E02DC7010995C80FD91F01501040011501
:1016F000110571F7CE01DF91CF911F910F91FF90EE
:10170000EF90DF90CF900895EF92FF920F931F9389
:101710008C01DC01ED91FC910190F081E02D6DE0F8
:1017200009957C01D801ED91FC910190F081E02DAB
:10173000C8016AE009959C012E0D3F1DC9011F914A
:101740000F91FF90EF900895CF93DF93EC01611517
:10175000710519F420E030E00FC0DB010D9000208E
:10176000E9F71197A61BB70BE881F9810280F38195
:10177000E02DAD0109959C01C901DF91CF9108953C
:101780004F925F927F928F929F92AF92BF92CF9231
:10179000DF92EF92FF920F931F93DF93CF93CDB71A
:1017A000DEB7A1970FB6F894DEBF0FBECDBF2C01F8
:1017B000742ECB01223008F42AE019A231E2C32EA4
:1017C000D12CCC0EDD1E822E9924AA24BB24672D99
:1017D000752FA50194010E94201379018A01C80187
:1017E000B701A50194010E940113472D461B0894DF
:1017F000C108D1084A3014F4405D01C0495CF601CB
:101800004083E114F1040105110521F07E2C5F2DC8
:10181000C801DDCFC201B6010E94A40BA1960FB68C
:10182000F894DEBF0FBECDBFCF91DF911F910F9116
:10183000FF90EF90DF90CF90BF90AF909F908F90F0
:101840007F905F904F900895DC012115310541F4A0
:10185000ED91FC910190F081E02D642F09950895A0
:101860000E94C00B0895EF92FF920F931F937C018B
:101870000E94240C8C01C7010E94840B9C01200F44
:10188000311FC9011F910F91FF90EF900895CF92E2
:10189000DF92EF92FF920F931F93CF93DF93EC01B0
:1018A0006A017B012115310541F4E881F98101903C
:1018B000F081E02D642F09951FC02A303105D1F445
:1018C00077FF17C0E881F9810190F081E02D6DE28A
:1018D00009958C0144275527BA014C195D096E09F9
:1018E0007F09CE012AE00E94C00B9801280F391F02
:1018F00004C02AE00E94C00B9C01C901DF91CF9176
:101900001F910F91FF90EF90DF90CF900895EF928D
:10191000FF920F931F937C010E94470C8C01C7011B
:101920000E94840B9C01200F311FC9011F910F9150
:10193000FF90EF9008950E94A40B08957F928F92DC
:101940009F92AF92BF92CF92DF92EF92FF920F934E
:101950001F93CF93DF934C017A018B01722ECB0141
:10196000BA01A80197010E94FD12882321F0C40149
:1019700060E471E021C0C0E0D0E057016801E89464
:10198000D7F8C601B5012FEF3FEF4FE75FE70E94A1
:10199000FD12882351F4C601B5012FEF3FEF4FE749
:1019A0005FE70E944711181614F0C1E0D0E02197BC
:1019B00039F0C40164E471E00E94A40BEC0193C00F
:1019C000C801B7012FEF3FEF4FE75FE40E94961287
:1019D000181654F0C801B7012FEF3FEF4FE75FEC47
:1019E0000E944711882324F4C40168E471E0E4CF25
:1019F000C801B70120E030E040E050E00E9447110C
:101A000087FD03C0C0E0D0E00EC0D401ED91FC9191
:101A10000190F081E02DC4016DE20995EC0117FB06
:101A2000109517F9109520E030E040E05FE3DD24E9
:101A30000BC0CA01B90120E030E040E251E40E944D
:101A40004B119B01AC01D394D71498F3C801B70193
:101A50000E94E3105B016C010E94B8117B018C01B4
:101A6000C401B801A7012AE030E00E94240CC80F8D
:101A7000D91F772039F0C4016CE471E00E94A40BF7
:101A8000C80FD91FC801B7010E94E4119B01AC0126
:101A9000C601B5010E94E21024C020E030E040E21F
:101AA00051E40E949A127B018C010E94B3115B01E8
:101AB0006C01CC24B7FCC094DC2CC401B601A50198
:101AC0002AE030E00E94470CC80FD91FC601B501BB
:101AD0000E94E6119B01AC01C801B7010E94E2100F
:101AE0007A947720D1F6CE01DF91CF911F910F919B
:101AF000FF90EF90DF90CF90BF90AF909F908F902E
:101B00007F900895EF92FF920F931F937C010E94A4
:101B10009E0C8C01C7010E94840B080F191FC8017D
:101B20001F910F91FF90EF90089581E08093410302
:101B300060931E0310923F0310924003089520917A
:101B40001D0330E080911C03281B3109C901089551
:101B500040911C0380911D03481718F02FEF3FEFB1
:101B60000AC0E42FF0E0E450FD4F8081282F30E0E0
:101B70004F5F40931C03C9010895E0911C038091BD
:101B80001D03E81718F0EFEFFFEF06C0F0E0E45098
:101B9000FD4F8081E82FF0E0CF0108950895109265
:101BA00045031092440388EE93E0A0E0B0E08093F8
:101BB000460390934703A0934803B09349038AE6F2
:101BC00091E090934303809342030895CF92DF9274
:101BD000EF92FF920F931F93CF93DF937C016B01E2
:101BE0008A01809141038823A1F0C0E0D0E00DC0BC
:101BF000D701ED91FC91D601AC0FBD1F0190F08192
:101C0000E02DC7016C9109952196C017D10780F38B
:101C100004C0CB01642F0E94180FC801DF91CF913F
:101C20001F910F91FF90EF90DF90CF900895DF9379
:101C3000CF930F92CDB7DEB7FC016983809141034A
:101C40008823C9F080914003803238F081E090E031
:101C50009383828320E030E015C080913F03E82F1A
:101C6000F0E0E15EFC4F998190838F5F80933F03AA
:101C70008093400305C0CE01019661E00E94180FD9
:101C800021E030E0C9010F90CF91DF9108950F93CB
:101C9000062F80911E036FE173E04091400321E025
:101CA0000E94C30E10923F03109240031092410312
:101CB0000F91089561E00E94470E0895413208F0A7
:101CC00040E2862F6CEF72E00E947A0E10921C03A5
:101CD00080931D03089521E00E945E0E08951092E6
:101CE0001C0310921D0310923F03109240030E94A8
:101CF000C4100895382F413210F040E042C0809166
:101D00004E038823E1F791E090934E032093500314
:101D10008FEF8093BB03109276034150409377037B
:101D20004F5F90934F0380914F03330F832B80932A
:101D30004F0380915103813041F4109251038091FF
:101D40004F038093BB0085EC01C085EE8093BC00FF
:101D500080914E038130E1F380917603841710F473
:101D60004091760320E030E00AC0FB01E20FF31F50
:101D7000D901AA5ABC4F8C9180832F5F3F4F241703
:101D8000A0F3842F08950F931F93582F122F4132E1
:101D900010F081E04AC080914E038823E1F782E091
:101DA00080934E03009350038FEF8093BB031092F8
:101DB000760340937703A6E5B3E0FB0102C081916F
:101DC0008D938E2F861B8417D0F310924F03809132
:101DD0004F03550F852B80934F0380915103813022
:101DE00041F41092510380914F038093BB0085EC26
:101DF00001C085EE8093BC00112321F080914E0339
:101E00008230E1F38091BB038F3F11F480E00DC07D
:101E10008091BB03803211F482E007C08091BB0344
:101E2000803311F084E001C083E01F910F91089589
:101E3000482F613210F081E0089580914E03843084
:101E400011F082E0089560939903A8E7B3E0842F2E
:101E50009C01F90102C081918D938E2F841B8617FE
:101E6000D0F380E008951F920F920FB60F921124C5
:101E70002F933F934F935F936F937F938F939F9392
:101E8000AF93BF93EF93FF938091B90090E0887F69
:101E900090708036910509F4F2C081369105CCF539
:101EA0008832910509F47BC089329105B4F4803100
:101EB000910509F46FC0813191053CF4009709F454
:101EC00047C1089709F04FC165C08831910509F4F1
:101ED00066C0809709F047C182C08034910509F43B
:101EE000A4C08134910544F48033910509F482C083
:101EF000C89709F038C189C08035910509F489C0B7
:101F00008835910509F496C08834910509F02BC1F4
:101F1000AEC08839910509F413C189399105ECF4F3
:101F20008837910509F4ABC0893791054CF48836A0
:101F3000910509F4A4C08037910509F014C19FC030
:101F40008838910509F4FCC08039910509F49DC0D9
:101F50008038910509F007C198C0803B910509F4CC
:101F6000C6C0813B91054CF4803A910509F49FC0AD
:101F7000883A910509F0F7C0BAC0803C910509F490
:101F8000E3C0883C910509F4DFC0883B910509F066
:101F9000EAC0C2C080914F038093BB00CFC0909134
:101FA000760380917703981768F490917603E92F70
:101FB000F0E0EA5AFC4F80818093BB009F5F9093D2
:101FC0007603BCC080915003882309F44BC085ED93
:101FD0008093BC008091BC0084FDFCCFC2C080E235
:101FE0008093BB0385ED8093BC008091BC0084FD91
:101FF000FCCFB7C080E38093BB0385ED8093BC002A
:102000008091BC0084FDFCCFACC088E38093BB030F
:102010009BC0809176039091BB00E82FF0E0EA5AD4
:10202000FC4F90838F5F809376039091760380912D
:10203000770382C0809176039091BB00E82FF0E097
:10204000EA5AFC4F90838F5F809376038091500310
:10205000882341F085ED8093BC008091BC0084FD15
:10206000FCCF7FC081E08093510384EA6EC085ED90
:102070008093BC008091BC0084FDFCCF72C083E0E3
:1020800080934E031092BA0359C08091BA038032F4
:1020900008F056C08091BA039091BB00E82FF0E0A1
:1020A000E656FC4F90838F5F8093BA0347C08091C0
:1020B000BA03803230F4E091BA03F0E0E656FC4F08
:1020C000108285ED8093BC008091BC0084FDFCCF24
:1020D00010924E036091BA03E0915403F0915503BE
:1020E0008AE993E070E009951092BA032DC084E06C
:1020F00080934E031092980310929903E09152033B
:10210000F0915303099580919903882329F481E084
:10211000809399031092780390919803E92FF0E04F
:10212000E858FC4F80818093BB009F5F9093980399
:102130009091980380919903981710F485EC01C051
:1021400085E88093BC000FC085EC8093BC0009C07B
:102150001092BB0385ED8093BC008091BC0084FD90
:10216000FCCF10924E03FF91EF91BF91AF919F91E1
:102170008F917F916F915F914F913F912F910F9030
:102180000FBE0F901F90189510924E0381E0809320
:1021900050031092510382E161E00E94A20883E1A2
:1021A00061E00E94A208E9EBF0E080818E7F8083ED
:1021B00080818D7F808388E48093B80085E480935C
:1021C000BC0008955058BB27AA270ED075C166D110
:1021D00030F06BD120F031F49F3F11F41EF45BC15D
:1021E0000EF4E095E7FB51C1E92F77D180F3BA17E0
:1021F000620773078407950718F071F49EF58FC185
:102200000EF4E0950B2EBA2FA02D0B01B901900111
:102210000C01CA01A0011124FF27591B99F0593F55
:1022200050F4503E68F11A16F040A22F232F342F9D
:102230004427585FF3CF469537952795A795F040EB
:102240005395C9F77EF41F16BA0B620B730B840B00
:10225000BAF09150A1F0FF0FBB1F661F771F881FB8
:10226000C2F70EC0BA0F621F731F841F48F4879510
:1022700077956795B795F7959E3F08F0B3CF9395FF
:10228000880F08F09927EE0F979587950895D9D074
:1022900008F481E008950CD00FC107D140F0FED0C2
:1022A00030F021F45F3F19F0F0C0511139C1F3C093
:1022B00014D198F39923C9F35523B1F3951B550B0A
:1022C000BB27AA2762177307840738F09F5F5F4F09
:1022D000220F331F441FAA1FA9F333D00E2E3AF04A
:1022E000E0E830D091505040E695001CCAF729D064
:1022F000FE2F27D0660F771F881FBB1F26173707B3
:102300004807AB07B0E809F0BB0B802DBF01FF27E2
:1023100093585F4F2AF09E3F510568F0B6C000C148
:102320005F3FECF3983EDCF3869577956795B7951C
:10233000F7959F5FC9F7880F911D9695879597F937
:102340000895E1E0660F771F881FBB1F62177307B0
:102350008407BA0720F0621B730B840BBA0BEE1FC5
:1023600088F7E095089504D06894B111D9C0089514
:10237000BCD088F09F5790F0B92F9927B751A0F0A3
:10238000D1F0660F771F881F991F1AF0BA95C9F709
:1023900012C0B13081F0C3D0B1E00895C0C0672F42
:1023A000782F8827B85F39F0B93FCCF386957795B9
:1023B0006795B395D9F73EF49095809570956195A2
:1023C0007F4F8F4F9F4F0895E89409C097FB3EF4CD
:1023D00090958095709561957F4F8F4F9F4F992372
:1023E000A9F0F92F96E9BB279395F69587957795F0
:1023F0006795B795F111F8CFFAF4BB0F11F460FFB0
:102400001BC06F5F7F4F8F4F9F4F16C0882311F007
:1024100096E911C0772321F09EE8872F762F05C01B
:10242000662371F096E8862F70E060E02AF09A95B6
:10243000660F771F881FDAF7880F9695879597F9AB
:102440000895990F0008550FAA0BE0E8FEEF161645
:102450001706E807F907C0F012161306E407F50798
:1024600098F0621B730B840B950B39F40A2661F00C
:10247000232B242B252B21F408950A2609F4A140AF
:10248000A6958FEF811D811D089597F99F6780E8BC
:1024900070E060E008959FEF80EC089500240A94B6
:1024A0001616170618060906089500240A9412162F
:1024B0001306140605060895092E0394000C11F462
:1024C000882352F0BB0F40F4BF2B11F460FF04C00F
:1024D0006F5F7F4F8F4F9F4F089557FD9058440F68
:1024E000551F59F05F3F71F04795880F97FB991F73
:1024F00061F09F3F79F08795089512161306140630
:10250000551FF2CF4695F1DF08C0161617061806BC
:10251000991FF1CF86957105610508940895E89497
:10252000BB2766277727CB0197F908958ADF08F440
:102530008FEF08950BD0C0CFB1DF28F0B6DF18F0D1
:10254000952309F0A2CFA7CF1124EACFC6DFA0F3CD
:10255000959FD1F3950F50E0551F629FF001729F38
:10256000BB27F00DB11D639FAA27F00DB11DAA1F57
:10257000649F6627B00DA11D661F829F2227B00DA4
:10258000A11D621F739FB00DA11D621F839FA00D2F
:10259000611D221F749F3327A00D611D231F849F7F
:1025A000600D211D822F762F6A2F11249F575040D6
:1025B0008AF0E1F088234AF0EE0FFF1FBB1F661F71
:1025C000771F881F91505040A9F79E3F510570F02A
:1025D0005CCFA6CF5F3FECF3983EDCF38695779512
:1025E0006795B795F795E7959F5FC1F7FE2B880F25
:1025F000911D9695879597F9089523DF880B990B80
:102600000895629FD001739FF001829FE00DF11D3C
:10261000649FE00DF11D929FF00D839FF00D749F5C
:10262000F00D659FF00D9927729FB00DE11DF91F08
:10263000639FB00DE11DF91FBD01CF011124089565
:10264000A1E21A2EAA1BBB1BFD010DC0AA1FBB1FB6
:10265000EE1FFF1FA217B307E407F50720F0A21B28
:10266000B30BE40BF50B661F771F881F991F1A9495
:1026700069F760957095809590959B01AC01BD01BF
:10268000CF01089597FB092E05260ED057FD04D0E3
:10269000D7DF0AD0001C38F450954095309521952D
:1026A0003F4F4F4F5F4F0895F6F790958095709587
:1026B00061957F4F8F4F9F4F0895EE0FFF1F05903D
:0A26C000F491E02D0994F894FFCF87
:1026CA0052656164206661696C0048756D69646968
:1026DA0074793A00707265737572653A0074656D43
:1026EA0070657261747572653A0070726F70656CAC
:1026FA006C65723A002B4F4B4D6574656F320A0058
:10270A006E616E00696E66006F7666002E000A0BB7
:10271A000C0D0405060700000000C40A5A0B5A0AE9
:10272A008B0A6B0AB40A00000000170EE60D9F0D13
:06273A00A80DBD0DCE0D3F
:00000001FF
